{
  "contractName": "testEthSettlement",
  "abi": [
    {
      "inputs": [
        {
          "internalType": "address",
          "name": "_owner",
          "type": "address"
        },
        {
          "internalType": "address",
          "name": "_operator",
          "type": "address"
        },
        {
          "internalType": "address payable",
          "name": "_testWallet",
          "type": "address"
        }
      ],
      "stateMutability": "nonpayable",
      "type": "constructor"
    },
    {
      "anonymous": false,
      "inputs": [
        {
          "indexed": true,
          "internalType": "address",
          "name": "oldWallet",
          "type": "address"
        },
        {
          "indexed": true,
          "internalType": "address",
          "name": "newWallet",
          "type": "address"
        },
        {
          "indexed": true,
          "internalType": "address",
          "name": "sender",
          "type": "address"
        }
      ],
      "name": "testWalletChanged",
      "type": "event"
    },
    {
      "anonymous": false,
      "inputs": [
        {
          "indexed": true,
          "internalType": "address",
          "name": "recipient",
          "type": "address"
        },
        {
          "indexed": false,
          "internalType": "uint256",
          "name": "value",
          "type": "uint256"
        },
        {
          "indexed": false,
          "internalType": "address",
          "name": "assetAddress",
          "type": "address"
        },
        {
          "indexed": true,
          "internalType": "address",
          "name": "sender",
          "type": "address"
        }
      ],
      "name": "ERC20Withdrawed",
      "type": "event"
    },
    {
      "anonymous": false,
      "inputs": [
        {
          "indexed": true,
          "internalType": "address",
          "name": "oldOperator",
          "type": "address"
        },
        {
          "indexed": true,
          "internalType": "address",
          "name": "newOperator",
          "type": "address"
        },
        {
          "indexed": true,
          "internalType": "address",
          "name": "sender",
          "type": "address"
        }
      ],
      "name": "OperatorChanged",
      "type": "event"
    },
    {
      "anonymous": false,
      "inputs": [
        {
          "indexed": true,
          "internalType": "bytes32",
          "name": "role",
          "type": "bytes32"
        },
        {
          "indexed": true,
          "internalType": "bytes32",
          "name": "previousAdminRole",
          "type": "bytes32"
        },
        {
          "indexed": true,
          "internalType": "bytes32",
          "name": "newAdminRole",
          "type": "bytes32"
        }
      ],
      "name": "RoleAdminChanged",
      "type": "event"
    },
    {
      "anonymous": false,
      "inputs": [
        {
          "indexed": true,
          "internalType": "bytes32",
          "name": "role",
          "type": "bytes32"
        },
        {
          "indexed": true,
          "internalType": "address",
          "name": "account",
          "type": "address"
        },
        {
          "indexed": true,
          "internalType": "address",
          "name": "sender",
          "type": "address"
        }
      ],
      "name": "RoleGranted",
      "type": "event"
    },
    {
      "anonymous": false,
      "inputs": [
        {
          "indexed": true,
          "internalType": "bytes32",
          "name": "role",
          "type": "bytes32"
        },
        {
          "indexed": true,
          "internalType": "address",
          "name": "account",
          "type": "address"
        },
        {
          "indexed": true,
          "internalType": "address",
          "name": "sender",
          "type": "address"
        }
      ],
      "name": "RoleRevoked",
      "type": "event"
    },
    {
      "anonymous": false,
      "inputs": [
        {
          "indexed": true,
          "internalType": "address",
          "name": "buyer",
          "type": "address"
        },
        {
          "indexed": false,
          "internalType": "uint256",
          "name": "settlePrice",
          "type": "uint256"
        },
        {
          "indexed": true,
          "internalType": "address",
          "name": "seller",
          "type": "address"
        },
        {
          "indexed": false,
          "internalType": "uint256",
          "name": "sellerPrice",
          "type": "uint256"
        },
        {
          "indexed": false,
          "internalType": "address",
          "name": "creater",
          "type": "address"
        },
        {
          "indexed": false,
          "internalType": "uint256",
          "name": "royalty",
          "type": "uint256"
        },
        {
          "indexed": false,
          "internalType": "address",
          "name": "testWallet",
          "type": "address"
        },
        {
          "indexed": true,
          "internalType": "uint256",
          "name": "pid",
          "type": "uint256"
        },
        {
          "indexed": false,
          "internalType": "uint256",
          "name": "deadline",
          "type": "uint256"
        }
      ],
      "name": "Settled",
      "type": "event"
    },
    {
      "inputs": [],
      "name": "DEFAULT_ADMIN_ROLE",
      "outputs": [
        {
          "internalType": "bytes32",
          "name": "",
          "type": "bytes32"
        }
      ],
      "stateMutability": "view",
      "type": "function",
      "constant": true
    },
    {
      "inputs": [],
      "name": "testWallet",
      "outputs": [
        {
          "internalType": "address payable",
          "name": "",
          "type": "address"
        }
      ],
      "stateMutability": "view",
      "type": "function",
      "constant": true
    },
    {
      "inputs": [
        {
          "internalType": "uint256",
          "name": "",
          "type": "uint256"
        }
      ],
      "name": "exclusives",
      "outputs": [
        {
          "internalType": "bool",
          "name": "",
          "type": "bool"
        }
      ],
      "stateMutability": "view",
      "type": "function",
      "constant": true
    },
    {
      "inputs": [
        {
          "internalType": "bytes32",
          "name": "role",
          "type": "bytes32"
        }
      ],
      "name": "getRoleAdmin",
      "outputs": [
        {
          "internalType": "bytes32",
          "name": "",
          "type": "bytes32"
        }
      ],
      "stateMutability": "view",
      "type": "function",
      "constant": true
    },
    {
      "inputs": [
        {
          "internalType": "bytes32",
          "name": "role",
          "type": "bytes32"
        },
        {
          "internalType": "address",
          "name": "account",
          "type": "address"
        }
      ],
      "name": "grantRole",
      "outputs": [],
      "stateMutability": "nonpayable",
      "type": "function"
    },
    {
      "inputs": [
        {
          "internalType": "bytes32",
          "name": "role",
          "type": "bytes32"
        },
        {
          "internalType": "address",
          "name": "account",
          "type": "address"
        }
      ],
      "name": "hasRole",
      "outputs": [
        {
          "internalType": "bool",
          "name": "",
          "type": "bool"
        }
      ],
      "stateMutability": "view",
      "type": "function",
      "constant": true
    },
    {
      "inputs": [],
      "name": "operator",
      "outputs": [
        {
          "internalType": "address",
          "name": "",
          "type": "address"
        }
      ],
      "stateMutability": "view",
      "type": "function",
      "constant": true
    },
    {
      "inputs": [
        {
          "internalType": "bytes32",
          "name": "role",
          "type": "bytes32"
        },
        {
          "internalType": "address",
          "name": "account",
          "type": "address"
        }
      ],
      "name": "renounceRole",
      "outputs": [],
      "stateMutability": "nonpayable",
      "type": "function"
    },
    {
      "inputs": [
        {
          "internalType": "bytes32",
          "name": "role",
          "type": "bytes32"
        },
        {
          "internalType": "address",
          "name": "account",
          "type": "address"
        }
      ],
      "name": "revokeRole",
      "outputs": [],
      "stateMutability": "nonpayable",
      "type": "function"
    },
    {
      "inputs": [
        {
          "internalType": "bytes4",
          "name": "interfaceId",
          "type": "bytes4"
        }
      ],
      "name": "supportsInterface",
      "outputs": [
        {
          "internalType": "bool",
          "name": "",
          "type": "bool"
        }
      ],
      "stateMutability": "view",
      "type": "function",
      "constant": true
    },
    {
      "inputs": [
        {
          "internalType": "address payable",
          "name": "_seller",
          "type": "address"
        },
        {
          "internalType": "uint256",
          "name": "_sellerPrice",
          "type": "uint256"
        },
        {
          "internalType": "address payable",
          "name": "_creater",
          "type": "address"
        },
        {
          "internalType": "uint256",
          "name": "_royalty",
          "type": "uint256"
        },
        {
          "internalType": "uint256",
          "name": "deadline",
          "type": "uint256"
        },
        {
          "internalType": "uint256",
          "name": "pid",
          "type": "uint256"
        },
        {
          "internalType": "uint8",
          "name": "v",
          "type": "uint8"
        },
        {
          "internalType": "bytes32",
          "name": "r",
          "type": "bytes32"
        },
        {
          "internalType": "bytes32",
          "name": "s",
          "type": "bytes32"
        }
      ],
      "name": "settle",
      "outputs": [],
      "stateMutability": "payable",
      "type": "function",
      "payable": true
    },
    {
      "inputs": [
        {
          "internalType": "address",
          "name": "_assetAddress",
          "type": "address"
        },
        {
          "internalType": "address",
          "name": "_recipient",
          "type": "address"
        },
        {
          "internalType": "uint256",
          "name": "_value",
          "type": "uint256"
        }
      ],
      "name": "withdrawERC20",
      "outputs": [],
      "stateMutability": "nonpayable",
      "type": "function"
    },
    {
      "inputs": [
        {
          "internalType": "address",
          "name": "_newOperator",
          "type": "address"
        }
      ],
      "name": "changeOperator",
      "outputs": [],
      "stateMutability": "nonpayable",
      "type": "function"
    },
    {
      "inputs": [
        {
          "internalType": "address payable",
          "name": "_newWallet",
          "type": "address"
        }
      ],
      "name": "changetestWallet",
      "outputs": [],
      "stateMutability": "nonpayable",
      "type": "function"
    }
  ],
  "bytecode": "0x60806040523480156200001157600080fd5b50604051620017b1380380620017b1833981016040819052620000349162000234565b600180556001600160a01b038316620000945760405162461bcd60e51b815260206004820152601960248201527f6f776e657220697320746865207a65726f20616464726573730000000000000060448201526064015b60405180910390fd5b6001600160a01b038216620000ec5760405162461bcd60e51b815260206004820152601c60248201527f6f70657261746f7220697320746865207a65726f20616464726573730000000060448201526064016200008b565b6001600160a01b038116620001445760405162461bcd60e51b815260206004820152601e60248201527f6164616d57616c6c657420697320746865207a65726f2061646472657373000060448201526064016200008b565b6200015160008462000184565b600380546001600160a01b039384166001600160a01b0319918216179091556004805492909316911617905550620002a0565b62000190828262000194565b5050565b6000828152602081815260408083206001600160a01b038516845290915290205460ff1662000190576000828152602081815260408083206001600160a01b03851684529091529020805460ff19166001179055620001f03390565b6001600160a01b0316816001600160a01b0316837f2f8788117e7eff1d82e926ec794901d17c78024a50270940304540a733656f0d60405160405180910390a45050565b60008060006060848603121562000249578283fd5b8351620002568162000287565b6020850151909350620002698162000287565b60408501519092506200027c8162000287565b809150509250925092565b6001600160a01b03811681146200029d57600080fd5b50565b61150180620002b06000396000f3fe6080604052600436106100dd5760003560e01c806344004cc11161007f57806391d148541161005957806391d1485414610272578063a217fddf14610292578063c9b00cea146102a7578063d547741f146102c757600080fd5b806344004cc114610202578063570ca7351461022257806372d3c2fd1461024257600080fd5b80632633baf0116100bb5780632633baf0146101775780632a9ba124146101af5780632f2ff15d146101c257806336568abe146101e257600080fd5b806301ffc9a7146100e257806306394c9b14610117578063248a9ca314610139575b600080fd5b3480156100ee57600080fd5b506101026100fd366004611304565b6102e7565b60405190151581526020015b60405180910390f35b34801561012357600080fd5b506101376101323660046111b7565b61031e565b005b34801561014557600080fd5b506101696101543660046112bd565b60009081526020819052604090206001015490565b60405190815260200161010e565b34801561018357600080fd5b50600454610197906001600160a01b031681565b6040516001600160a01b03909116815260200161010e565b6101376101bd3660046111d3565b6103d9565b3480156101ce57600080fd5b506101376101dd3660046112d5565b6108f3565b3480156101ee57600080fd5b506101376101fd3660046112d5565b61091e565b34801561020e57600080fd5b5061013761021d36600461125d565b61099c565b34801561022e57600080fd5b50600354610197906001600160a01b031681565b34801561024e57600080fd5b5061010261025d3660046112bd565b60026020526000908152604090205460ff1681565b34801561027e57600080fd5b5061010261028d3660046112d5565b610ae0565b34801561029e57600080fd5b50610169600081565b3480156102b357600080fd5b506101376102c23660046111b7565b610b09565b3480156102d357600080fd5b506101376102e23660046112d5565b610bbf565b60006001600160e01b03198216637965db0b60e01b148061031857506301ffc9a760e01b6001600160e01b03198316145b92915050565b600061032a8133610be5565b6001600160a01b0382166103855760405162461bcd60e51b815260206004820181905260248201527f6e6577206f70657261746f7220697320746865207a65726f206164647265737360448201526064015b60405180910390fd5b600380546001600160a01b038481166001600160a01b031983168117909355604051911691339183907f01c8730122ff73369629940a5296f4e7100ef16317d943fbbbfa1b0193ac35cb90600090a4505050565b6002600154141561042c5760405162461bcd60e51b815260206004820152601f60248201527f5265656e7472616e637947756172643a207265656e7472616e742063616c6c00604482015260640161037c565b60026001556004546040516bffffffffffffffffffffffff1933606090811b821660208401523460348401528c811b82166054840152606883018c90528a811b82166088840152609c83018a90529290921b90911660bc82015260d0810185905260f081018690526000906101100160408051808303601f1901815282825280516020918201206003546000855291840180845281905260ff88169284019290925260608301869052608083018590529092506001600160a01b03169060019060a0016020604051602081039080840390855afa158015610511573d6000803e3d6000fd5b505050602060405103516001600160a01b0316146105655760405162461bcd60e51b8152602060048201526011602482015270696e76616c6964207369676e617475726560781b604482015260640161037c565b4286101561059f5760405162461bcd60e51b8152602060048201526007602482015266195e1c1a5c995960ca1b604482015260640161037c565b60008581526002602052604090205460ff16156105ec5760405162461bcd60e51b815260206004820152600b60248201526a1a1859081cd95d1d1b195960aa1b604482015260640161037c565b6105f6878a611408565b34101561063c5760405162461bcd60e51b81526020600482015260146024820152731d1a19481c1c9a58d9481a5cc81a5b9d985b1a5960621b604482015260640161037c565b6000858152600260205260409020805460ff1916600117905588156107005760008a6001600160a01b03168a60405160006040518083038185875af1925050503d80600081146106a8576040519150601f19603f3d011682016040523d82523d6000602084013e6106ad565b606091505b50509050806106fe5760405162461bcd60e51b815260206004820152601c60248201527f6661696c656420746f2073656e642045544820746f2073656c6c657200000000604482015260640161037c565b505b86156107ab576000886001600160a01b03168860405160006040518083038185875af1925050503d8060008114610753576040519150601f19603f3d011682016040523d82523d6000602084013e610758565b606091505b50509050806107a95760405162461bcd60e51b815260206004820152601d60248201527f6661696c656420746f2073656e642045544820746f2063726561746572000000604482015260640161037c565b505b6000876107b88b3461143f565b6107c2919061143f565b90508015610879576004546040516000916001600160a01b03169083908381818185875af1925050503d8060008114610817576040519150601f19603f3d011682016040523d82523d6000602084013e61081c565b606091505b50509050806108775760405162461bcd60e51b815260206004820152602160248201527f6661696c656420746f2073656e642045544820746f206164616d2077616c6c656044820152601d60fa1b606482015260840161037c565b505b60045460408051348152602081018d90526001600160a01b038c811682840152606082018c9052928316608082015260a081018a9052905188928e169133917f939d4ccbfdaefb1976e8df53cf5eecdedc4dae885840a957de688a88f5f1513b9181900360c00190a4505060018055505050505050505050565b60008281526020819052604090206001015461090f8133610be5565b6109198383610c49565b505050565b6001600160a01b038116331461098e5760405162461bcd60e51b815260206004820152602f60248201527f416363657373436f6e74726f6c3a2063616e206f6e6c792072656e6f756e636560448201526e103937b632b9903337b91039b2b63360891b606482015260840161037c565b6109988282610ccd565b5050565b60006109a88133610be5565b6040516370a0823160e01b81523060048201526001600160a01b038516906370a082319060240160206040518083038186803b1580156109e757600080fd5b505afa1580156109fb573d6000803e3d6000fd5b505050506040513d601f19601f82011682018060405250810190610a1f919061132c565b821115610a7e5760405162461bcd60e51b815260206004820152602760248201527f74686520455243323020746f6b656e2062616c616e636520697320696e737566604482015266199a58da595b9d60ca1b606482015260840161037c565b610a926001600160a01b0385168484610d32565b604080518381526001600160a01b0386811660208301523392908616917f34e2644334afd779cd4559173df184119822f5366818a6e6c57244ca5165783e910160405180910390a350505050565b6000918252602082815260408084206001600160a01b0393909316845291905290205460ff1690565b6000610b158133610be5565b6001600160a01b038216610b6b5760405162461bcd60e51b815260206004820152601e60248201527f6e65772077616c6c657420697320746865207a65726f20616464726573730000604482015260640161037c565b600480546001600160a01b038481166001600160a01b031983168117909355604051911691339183907f136945f6642d75daa7931b900740c69e02d76aa95049c9174323056b430fded490600090a4505050565b600082815260208190526040902060010154610bdb8133610be5565b6109198383610ccd565b610bef8282610ae0565b61099857610c07816001600160a01b03166014610d84565b610c12836020610d84565b604051602001610c23929190611360565b60408051601f198184030181529082905262461bcd60e51b825261037c916004016113d5565b610c538282610ae0565b610998576000828152602081815260408083206001600160a01b03851684529091529020805460ff19166001179055610c893390565b6001600160a01b0316816001600160a01b0316837f2f8788117e7eff1d82e926ec794901d17c78024a50270940304540a733656f0d60405160405180910390a45050565b610cd78282610ae0565b15610998576000828152602081815260408083206001600160a01b0385168085529252808320805460ff1916905551339285917ff6391f5c32d9c69d2a47ea670b442974b53935d1edc7fd64eb21e047a839171b9190a45050565b604080516001600160a01b038416602482015260448082018490528251808303909101815260649091019091526020810180516001600160e01b031663a9059cbb60e01b179052610919908490610f6d565b60606000610d93836002611420565b610d9e906002611408565b67ffffffffffffffff811115610dc457634e487b7160e01b600052604160045260246000fd5b6040519080825280601f01601f191660200182016040528015610dee576020820181803683370190505b509050600360fc1b81600081518110610e1757634e487b7160e01b600052603260045260246000fd5b60200101906001600160f81b031916908160001a905350600f60fb1b81600181518110610e5457634e487b7160e01b600052603260045260246000fd5b60200101906001600160f81b031916908160001a9053506000610e78846002611420565b610e83906001611408565b90505b6001811115610f17576f181899199a1a9b1b9c1cb0b131b232b360811b85600f1660108110610ec557634e487b7160e01b600052603260045260246000fd5b1a60f81b828281518110610ee957634e487b7160e01b600052603260045260246000fd5b60200101906001600160f81b031916908160001a90535060049490941c93610f1081611486565b9050610e86565b508315610f665760405162461bcd60e51b815260206004820181905260248201527f537472696e67733a20686578206c656e67746820696e73756666696369656e74604482015260640161037c565b9392505050565b6000610fc2826040518060400160405280602081526020017f5361666545524332303a206c6f772d6c6576656c2063616c6c206661696c6564815250856001600160a01b031661103f9092919063ffffffff16565b8051909150156109195780806020019051810190610fe0919061129d565b6109195760405162461bcd60e51b815260206004820152602a60248201527f5361666545524332303a204552433230206f7065726174696f6e20646964206e6044820152691bdd081cdd58d8d9595960b21b606482015260840161037c565b606061104e8484600085611056565b949350505050565b6060824710156110b75760405162461bcd60e51b815260206004820152602660248201527f416464726573733a20696e73756666696369656e742062616c616e636520666f6044820152651c8818d85b1b60d21b606482015260840161037c565b843b6111055760405162461bcd60e51b815260206004820152601d60248201527f416464726573733a2063616c6c20746f206e6f6e2d636f6e7472616374000000604482015260640161037c565b600080866001600160a01b031685876040516111219190611344565b60006040518083038185875af1925050503d806000811461115e576040519150601f19603f3d011682016040523d82523d6000602084013e611163565b606091505b509150915061117382828661117e565b979650505050505050565b6060831561118d575081610f66565b82511561119d5782518084602001fd5b8160405162461bcd60e51b815260040161037c91906113d5565b6000602082840312156111c8578081fd5b8135610f66816114b3565b60008060008060008060008060006101208a8c0312156111f1578485fd5b89356111fc816114b3565b985060208a0135975060408a0135611213816114b3565b965060608a0135955060808a0135945060a08a0135935060c08a013560ff8116811461123d578384fd5b8093505060e08a013591506101008a013590509295985092959850929598565b600080600060608486031215611271578283fd5b833561127c816114b3565b9250602084013561128c816114b3565b929592945050506040919091013590565b6000602082840312156112ae578081fd5b81518015158114610f66578182fd5b6000602082840312156112ce578081fd5b5035919050565b600080604083850312156112e7578182fd5b8235915060208301356112f9816114b3565b809150509250929050565b600060208284031215611315578081fd5b81356001600160e01b031981168114610f66578182fd5b60006020828403121561133d578081fd5b5051919050565b60008251611356818460208701611456565b9190910192915050565b7f416363657373436f6e74726f6c3a206163636f756e7420000000000000000000815260008351611398816017850160208801611456565b7001034b99036b4b9b9b4b733903937b6329607d1b60179184019182015283516113c9816028840160208801611456565b01602801949350505050565b60208152600082518060208401526113f4816040850160208701611456565b601f01601f19169190910160400192915050565b6000821982111561141b5761141b61149d565b500190565b600081600019048311821515161561143a5761143a61149d565b500290565b6000828210156114515761145161149d565b500390565b60005b83811015611471578181015183820152602001611459565b83811115611480576000848401525b50505050565b6000816114955761149561149d565b506000190190565b634e487b7160e01b600052601160045260246000fd5b6001600160a01b03811681146114c857600080fd5b5056fea264697066735822122053c2484c8145e68c78a6ce411a325e1405a026e0354f949cd4defd1d0c41893264736f6c63430008040033",
  "immutableReferences": {},
  "source": "// SPDX-License-Identifier: UNLICENSED\npragma solidity 0.8.4;\n\nimport \"@openzeppelin/contracts/token/ERC20/IERC20.sol\";\nimport \"@openzeppelin/contracts/token/ERC20/utils/SafeERC20.sol\";\nimport \"@openzeppelin/contracts/access/AccessControl.sol\";\nimport \"@openzeppelin/contracts/security/ReentrancyGuard.sol\";\n\ncontract testEthSettlement is AccessControl, ReentrancyGuard {\n\n    using SafeERC20 for IERC20;\n    event Settled(address indexed buyer, uint256 settlePrice, address indexed seller, uint256 sellerPrice, address creater, uint256 royalty, address testWallet, uint256 indexed pid, uint256 deadline);   \n    event ERC20Withdrawed(address indexed recipient, uint256 value, address assetAddress, address indexed sender);\n    event OperatorChanged(address indexed oldOperator, address indexed newOperator, address indexed sender);\n    event testWalletChanged(address indexed oldWallet, address indexed newWallet, address indexed sender);\n\n    // paymentId(pid) -> true/false\n    mapping(uint256 => bool) public exclusives;\n    address public operator;\n    address payable public testWallet;\n\n    constructor(address _owner, address _operator, address payable _testWallet) {\n        require(_owner != address(0), \"owner is the zero address\");\n        require(_operator != address(0), \"operator is the zero address\");\n        require(_testWallet != address(0), \"testWallet is the zero address\");\n\n        _setupRole(DEFAULT_ADMIN_ROLE, _owner);\n        operator = _operator;\n        testWallet = _testWallet;\n    }\n\n    function settle(address payable _seller, uint256 _sellerPrice, address payable _creater, uint256 _royalty, uint256 deadline, uint256 pid, uint8 v, bytes32 r, bytes32 s) nonReentrant() payable external {\n        // reproduce the data of the signature\n        bytes32 data = keccak256(abi.encodePacked(\n            address(msg.sender),\n            bytes32(msg.value),\n            _seller,\n            bytes32(_sellerPrice),\n            _creater,\n            bytes32(_royalty),\n            testWallet,\n            bytes32(pid),\n            bytes32(deadline)\n        ));\n\n        // check the signature \n        require(ecrecover(data, v, r, s) == operator, \"invalid signature\");\n\n        // check the deadline\n        require(deadline >= block.timestamp, 'expired');\n\n        // avoid multi-payment\n        require(!exclusives[pid], \"had settled\"); \n\n        // check the msg.value\n        require(msg.value >= _sellerPrice + _royalty, \"the price is invalid\");\n\n        // flag the settled payment \n        exclusives[pid] = true; \n\n        // send _sellerPrice to seller \n        if(_sellerPrice != 0){\n            (bool sent, ) = _seller.call{value: _sellerPrice}(\"\");\n            require(sent, \"failed to send ETH to seller\");\n        }\n\n        // send _royalty to creater \n        if(_royalty != 0){\n            (bool sent, ) = _creater.call{value: _royalty}(\"\");\n            require(sent, \"failed to send ETH to creater\");\n        }\n\n        // send fee to test wallet\n        uint256 feeBalance = msg.value - _sellerPrice - _royalty;\n        if(feeBalance != 0){\n            (bool sent, ) = testWallet.call{value: feeBalance}(\"\");\n            require(sent, \"failed to send ETH to test wallet\");            \n        }\n\n        emit Settled(msg.sender, msg.value, _seller, _sellerPrice,  _creater, _royalty, testWallet, pid, deadline);\n    }\n\n    // withdraw ERC20 locked up in the contract\n    function withdrawERC20(address _assetAddress, address _recipient, uint256 _value) onlyRole(DEFAULT_ADMIN_ROLE) external {\n        require(_value <= IERC20(_assetAddress).balanceOf(address(this)), \"the ERC20 token balance is insufficient\");\n        IERC20(_assetAddress).safeTransfer(_recipient, _value);\n        emit ERC20Withdrawed(_recipient, _value, _assetAddress, msg.sender);\n    }\n\n    function changeOperator(address _newOperator) onlyRole(DEFAULT_ADMIN_ROLE) external {\n        require(_newOperator != address(0), \"new operator is the zero address\");\n        address old = operator; \n        operator = _newOperator;\n        emit OperatorChanged(old, _newOperator, msg.sender);\n    }\n\n    function changetestWallet(address payable _newWallet) onlyRole(DEFAULT_ADMIN_ROLE) external {\n        require(_newWallet != address(0), \"new wallet is the zero address\");\n        address old = testWallet; \n        testWallet = _newWallet;\n        emit testWalletChanged(old, _newWallet, msg.sender);\n    }\n}\n",
  "sourcePath": "/Users/usr0102794/origin-test/contracts/contracts/testEthSettlement.sol",
  "compiler": {
    "name": "solc",
    "version": "0.8.4+commit.c7e474f2.Emscripten.clang"
  },
  "schemaVersion": "3.4.1",
  "updatedAt": "2021-09-03T08:56:52.108Z",
  "networkType": "ethereum",
  "devdoc": {
    "kind": "dev",
    "methods": {
      "getRoleAdmin(bytes32)": {
        "details": "Returns the admin role that controls `role`. See {grantRole} and {revokeRole}. To change a role's admin, use {_setRoleAdmin}."
      },
      "grantRole(bytes32,address)": {
        "details": "Grants `role` to `account`. If `account` had not been already granted `role`, emits a {RoleGranted} event. Requirements: - the caller must have ``role``'s admin role."
      },
      "hasRole(bytes32,address)": {
        "details": "Returns `true` if `account` has been granted `role`."
      },
      "renounceRole(bytes32,address)": {
        "details": "Revokes `role` from the calling account. Roles are often managed via {grantRole} and {revokeRole}: this function's purpose is to provide a mechanism for accounts to lose their privileges if they are compromised (such as when a trusted device is misplaced). If the calling account had been granted `role`, emits a {RoleRevoked} event. Requirements: - the caller must be `account`."
      },
      "revokeRole(bytes32,address)": {
        "details": "Revokes `role` from `account`. If `account` had been granted `role`, emits a {RoleRevoked} event. Requirements: - the caller must have ``role``'s admin role."
      },
      "supportsInterface(bytes4)": {
        "details": "See {IERC165-supportsInterface}."
      }
    },
    "version": 1
  },
  "userdoc": {
    "kind": "user",
    "methods": {},
    "version": 1
  }
}